:0400000080316A28B9
:100008007E14803120007F08F1002100111C652832
:100018002000111C65281110D8309700F230960086
:1000280068160130F0007008BC073C080A3A031D46
:100038002328BC0179182228791423287910013043
:10004800F0007008BF073F08323A031D3128BF018E
:10005800F9183028F9143128F9100130F000700827
:10006800BD073D08643A031D3F28BD0179193E28A4
:1000780079153F2879110130F0007008BE073E0855
:10008800C83A031D4D28BE01F9194C28F9154D2809
:10009800F911F91F5228791C60286228791E5728FF
:1000A800F91C60286228791F5C28791D602862285D
:1000B800F91E6528F9196228EE136328EE179531A1
:1000C800B82571082000FF007E10090080316C28D7
:1000D800F901FA01FB0120308400003085004E3020
:1000E800953103258031A0308400003085001A3016
:1000F800953103257E1020009531492D002B2000D5
:100108003808063A0319B80163188C28621C9B2822
:10011800E81E9B28EB01EB0A0830F2000030F300E0
:10012800F430F4000130F500873144278031200095
:100138005B10DB13DC105C11DC11F030F600760884
:10014800FB05EA01A001A101DD2A3808063A0319D6
:10015800FB18AF28B8016318E81EBE28EB01083069
:10016800F2000030F300F430F4000130F50087317C
:10017800442780312000571CD7186F2AED08031D2B
:10018800E728FB1ED128DC10DB170030F200003016
:10019800F3003230F4000030F428FB1A0B2B5B1408
:1001A8003308A101A1073208A001A0070030F2001E
:1001B8000030F300BC30F4000230F50087314427EA
:1001C800803102301A2A6D08013A03197A1CF9287D
:1001D8005B140030F2000030F300BC30F400023051
:1001E800F500873144278031932A6D08023A0319B4
:1001F8007A1C0529571D02296A14752AFB14FB115C
:1002080069296D08033A03197B1D0B2B7B110330F9
:10021800F6007608EB000330BE293808063A0319C1
:10022800B8016318E81E2429EB010830F2000030F9
:10023800F300F430F4000130F500873144278031B1
:100248002000571CD7186F2AED08031D5129FB1EE3
:100258003C295B10DB13DC100030F2000030F300A7
:10026800F430F4000130F500873144278031932AB7
:10027800FB1A0B2B3308A101A1073208A001A00724
:100288000030F2000030F300F430F4000130F500E3
:1002980087314427803103301A2A6D08013A03193F
:1002A8007A1C6329DB170030F2000030F30032308B
:1002B800F4000030F500873144278031932A6D0817
:1002C800023A03197A1C6D295B140130F60076088E
:1002D800972A6D08033A03197A1C80290030F20026
:1002E8000030F3003108F501F5073008F401F40790
:1002F800873144278031932A6D08043A031DC129A8
:10030800FB1A8C293308A101A1073208A001A00714
:100318007B1AFB1E9E297B12DB13DC100030F200D7
:100328000030F3003230F4000030F5008731442704
:100338008031932A7B1AFB1AB5297B123508A10153
:10034800A1073408A001A0070030F2000030F30034
:10035800BC30F4000230F500873144278031063084
:100368001A2A7A1C0B2BA001A1015B10DB13DC10ED
:10037800DC110730F60076081D2A6D08053A0319C6
:100388007A1CD329DC140030F2000030F300BC30B2
:10039800F4000230F500873144278031932A6D0834
:1003A800063A03197A1CEB290030F2000030F300FA
:1003B8003108F501F5073008F401F40787314427BF
:1003C80080310230F60076082000EB00DC2A6D0848
:1003D800073A031D1F2A6218F3297B1E0B2B7B1E6D
:1003E800F6297B12FB1E052ADB170030F2000030CD
:1003F800F3003230F4000030F500873144278031B3
:10040800932AFB1A0B2B5B143508A101A1073408AA
:10041800A001A0070030F2000030F300BC30F40067
:100428000230F5008731442780310930F60076081C
:100438002000ED000B2B6D08083A03197A1C312AAD
:100448005B140030F2000030F300BC30F4000230DE
:10045800F500873144278031932A6D08093A03193A
:100468007A1C0B2BFB1E3A2ADB13DC140030F2003B
:100478000030F3003108F501F5073008F401F407FE
:100488008731442780310230F60076082000EB00DF
:10049800DC15DC2A6318E81E5E2A0830F2000030FA
:1004A800F300F430F4000130F5008731442780313F
:1004B8002000EB013808063A0319FB18642AB80132
:1004C800571D6B2A6A140430F6007608EB0057189B
:1004D8006F2AD71C772A571C722A6A15D71C752AC7
:1004E800EA140430C32AED08031DCE2A7B1E992A7C
:1004F8007B122100370836040319882A0130B60216
:100508000030B73BFB100B2BFB14FB1A922A200080
:100518003308A101A1073208A001A007FB1101308F
:10052800F60076082000ED070B2B4708023A03195E
:10053800B12A4A08023A0319B12A4D08023A0319A6
:10054800B12A5008023A0319B12A5308023A03198A
:10055800B12A5608023A031DBF2A0030F2000030C3
:10056800F3003108F501F5073008F401F407873185
:10057800442780310B2B7A1CC72AFB110330F60065
:100588007608EB000B2B3508A101A1073408A00160
:10059800A0070B2B6D08013A03197B1D0B2B7B1150
:1005A800FB1ADC2A3508A101A1073408A001A0071D
:1005B800FB15ED010B2B3808063A0319B80163182F
:1005C800E81EF32A0830F2000030F300F430F4009B
:1005D8000130F5008731442780312000EB0157189E
:1005E8006A15D718EA145B10DB13DC105C11DC11F8
:1005F800FB11A001A1010B2B20006B088400053022
:10060800040203180B2B903104351E3E8200FB1C9C
:100618000800FB1908002000EC08031D242BDC113E
:100628000230F2000030F3006430F4000030F500CE
:10063800873144270130F60076082000EC070800CF
:100648006C08013A0319FA1D3A2B5C150030F200C8
:100658000030F300F430F4000130F500873144270E
:100668000130F60076082000EC0708006C08023A12
:1006780003197A1C502B5C110030F2000030F30093
:10068800E830F4000330F500873144270130F600E4
:1006980076082000EC0708006C08033A03197A1C56
:1006A800662BDC150230F2000030F3006430F400F1
:1006B8000030F500873144270130F6007608200025
:1006C800EC0708006C08043A031D0800FA1D08002E
:1006D8002F082100B701B70720002E082100B60116
:1006E800B607FB107B152000EC0108002000681EEF
:1006F80008000B13B908031DE62B013021009D00EB
:10070800E0309E000230BA003A082000C200000023
:10071800C20B8B2B21009D149D18902B1C08BA002E
:10072800BB013A082000B00021003B082000B100BE
:1007380030082100BB00BA013A082000B0002100AF
:100748003B082000B10021001B08BA00BB013A0891
:100758002000B00721003B082000B13D30092100EE
:10076800BA00200031092100BB00BA0A0319BB0AEC
:100778003A08FF3E2000B000033021003B3D200036
:10078800B100FB1ACF2B3108F301F3073008F2014F
:10079800F2070630D82BFB1E9F2D3108F301F30713
:1007A8003008F201F2073C30F4000030F5008731E0
:1007B800E327833173082000B101B1077208B00143
:1007C800B0079F2D3908013A031D302C0530210050
:1007D8009D00E0309E000230BA003A082000C200B6
:1007E80000008331C20BF52B21009D149D18FA2BB4
:1007F8001C08BA00BB013A082000B40021003B08DD
:100808002000B50034082100BB00BA013A082000D6
:10081800B40021003B082000B50021001B08BA00E5
:10082800BB013A082000B40721003B082000B53D71
:1008380034092100BA00200035092100BB00BA0A9A
:100848000319BB0A3A08FF3E2000B4000330210018
:100858003B3D2000B5009F2D3908023A031D872C27
:10086800093021009D00E0309E000230BA003A08AD
:100878002000C2000000C20B3E2C21009D149D18D0
:10088800432C1C08BA00BB013A082000B200210022
:100898003B082000B30032082100BB00BA013A0827
:1008A8002000B20021003B082000B30021001B08F3
:1008B800BA00BB013A082000B20721003B0820001B
:1008C800B33D32092100BA00200033092100BB00E2
:1008D800BA0A0319BB0A3A08FF3E2000B2000330E7
:1008E80021003B3D2000B30033083502031D7E2C58
:1008F8003208340203189F2D3508B301B3073408B2
:10090800B201B2079F2D3908033A031DE42C0D30BC
:1009180021009D00E0309E000230BA003A08200015
:10092800C2000000C20B952C21009D149D189A2C22
:100938001C08BA00BB013A082000A60021003B08A9
:100948002000A70026082100BB00BA013A082000B1
:10095800A60021003B082000A70021001B08BA00C0
:10096800BB013A082000A60721003B082000A73D4C
:1009780026092100BA00200027092100BB00BA0A75
:100988000319BB0A3A08FF3E2000A60003302100E5
:100998003B3D2000A7002708F301F3072608F201D2
:1009A800F2071E30F4000030F5008731E327833169
:1009B80073082000A701A7077208A601A6079F2DA4
:1009C8003908043A031D422D113021009D00E03002
:1009D8009E000230BA003A082000C20000008431AC
:1009E800C20BF32C21009D149D18F82C1C08BA008A
:1009F800BB013A082000A80021003B082000A900FC
:100A080028082100BB00BA013A082000A8002100EC
:100A18003B082000A90021001B08BA00BB013A08C6
:100A28002000A80721003B082000A93D2809210033
:100A3800BA00200029092100BB00BA0A0319BB0A21
:100A48003A08FF3E2000A800033021003B3D20006B
:100A5800A9002908F301F3072808F201F2071E305C
:100A6800F4000030F5008731E32783317308200054
:100A7800A901A9077208A801A8079F2D3908053AF6
:100A8800031DA62D153021009D00E0309E00023088
:100A9800BA003A082000C20000008531C20B512D6F
:100AA80021009D149D18562D1C08BA00BB013A0858
:100AB8002000A40021003B082000A50024082100F4
:100AC800BB00BA013A082000A40021003B0820001E
:100AD800A50021001B08BA00BB013A082000A407A2
:100AE80021003B082000A53D24092100BA00200070
:100AF80025092100BB00BA0A0319BB0A3A08FF3EC0
:100B08002000A400033021003B3D2000A50025085B
:100B1800F301F3072408F201F2071230F400003061
:100B2800F5008731E327833173082000A501A50765
:100B38007208A401A40701302100BA003A08200075
:100B4800B907002E3908063A031D002E1930210076
:100B58009D00E0309E000230BA003A082000C20032
:100B680000008531C20BB52D21009D149D18BA2DAA
:100B78001C08BA00BB013A082000AE0021003B085F
:100B88002000AF002E082100BB00BA013A0820005F
:100B9800AE0021003B082000AF0021001B08BA006E
:100BA800BB013A082000AE0721003B082000AF3DFA
:100BB8002E092100BA0020002F092100BB00BA0A23
:100BC8000319BB0A3A08FF3E2000AE00033021009B
:100BD8003B3D2000AF002F082100BB0020002E085D
:100BE8002100BA00BB36BA0C3A082000AE0021003A
:100BF8003B082000AF00B9010B170800342F200074
:100C08003808013A031D0C2E0230F6007608B800A9
:100C1800E319E81F1C2E0A30F2000030F30064309C
:100C2800F4000030F500873144272000CA01CA0AC1
:100C38005C105B11C801C9010800E319E81F312ED7
:100C48000A30F2000030F3006430F4000030F500A0
:100C58008731442786312000CA01C90803197A1D43
:100C6800612E3808013A031D3D2E0230F600760841
:100C7800B8000630F2000030F300E030F4002E3007
:100C8800F5008731442786312000581C5C2E02303D
:100C9800F2000030F3006430F4000030F5008731D2
:100CA800442720005C140130F6007608C9070800C4
:100CB8000230F6007608C90008004908013A03190D
:100CC800FA1D7F2E3808013A031D6E2E0230F600F9
:100CD8007608B8000230F2000030F3006430F40007
:100CE8000030F5008731442720005C100130F60001
:100CF8007608C90708004908023A031D0800FA1FC8
:100D0800872EC9010800581CD81C922E7A1D922ED5
:100D18000230F6007608CA00C90108003808013A0E
:100D2800031D08000230F6007608B8000800E31931
:100D3800E81FAB2E0A30F2000030F3006430F400F4
:100D48000030F5008731442786312000CA01380871
:100D5800013A031D0800C908031DB82E7B1601308F
:100D6800F6007608C90708004908013A0319FB1D6F
:100D7800CE2E5B150230F2000030F3006430F40030
:100D88000030F500873144270130F600760820004E
:100D9800C90708004908023A0319FA1DE52E03306D
:100DA800F2000030F3002708F501F5072608F401E2
:100DB800F407873144270130F60076082000C90778
:100DC80008004908033A031D0800D81CED2EFB193A
:100DD800FE2E5B1148100730F2000030F300F430AB
:100DE800F4000130F500873144272000CA01CA0AFF
:100DF800C9010800581C072F5B110330F60076085C
:100E0800CA00C81408007A1E08005B110730F200F7
:100E18000030F300F430F4000130F5008731442746
:100E28002000CA01CA0A4814C90108003808013A52
:100E3800031D222F0230F6007608B800E319E81FD8
:100E4800312F0A30F2000030F3006430F400003033
:100E5800F500873144272000CA015C105B110800A7
:100E680020004A08003A0319032E013A0319212EDB
:100E7800033A03199B2E013A03191A2F432F08002E
:100E8800D32F75082000B701B7077408B601B60755
:100E98007A10080075082000AD01AD077408AC0190
:100EA800AC07FA11080075082100B501B5077408E8
:100EB800B401B4077A12080075082100A101A1073E
:100EC8007408A001A007FA12080075082100AB01F8
:100ED800AB077408AA01AA077A130800750820004E
:100EE800AB01AB077408AA01AA07FA100800750835
:100EF8002100A501A5077408A401A407FA13080096
:100F080075082100B301B3077408B201B2077A115A
:100F1800080075082100B901B9077408B801B807B5
:100F28002000E812080075082100A301A30774082F
:100F3800A201A20720006813080075082100A70174
:100F4800A7077408A601A6072000E813080075087B
:100F58002100A901A9077408A801A80720006910A1
:100F6800080075082100AD01AD077408AC01AC0795
:100F78002000E910080075082100AF01AF077408C8
:100F8800AE01AE0720006911080075082100B10103
:100F9800B1077408B001B0072000E9110800730810
:100FA800003A0319D82FE22F720884000F30040288
:100FB8000318080090310435003E82000800F6014D
:100FC800F701721CEB2F7408F6077508F73D01301E
:100FD800F435F50D890BEC2F0130F336F20C890B43
:100FE800F12F73087204031DE52F7708F301F30747
:100FF8007608F201F20708008E317F2E8E31802E9E
:0C1008008E31832E8E31802E8E31882E8A
:101016002000C008031D2628D71A24280130F20014
:101026000030F3002908F501F5072808F401F40754
:1010360087314427200041140130F6007608C007A6
:101046000800DC1608004008013A031D0800D71EF8
:101056002F284110C0010800FA1C0800DC12080005
:1010660002292000B808031D3A28B801B80A6319F6
:10107600681F4A280930F2000030F3006430F4009B
:101086000030F500873144272000C701C70ADB106E
:10109600C50108006319681F5D280930F200003099
:1010A600F3006430F4000030F500873144278831BE
:1010B6002000C7015A1FDA1F67287A1D67280230E9
:1010C600F6007608C7006C28B808031D6C28B8011E
:1010D600B80AC60108006319681F7E280930F200A5
:1010E6000030F3006430F4000030F5008731442707
:1010F60088312000C7013808031D0800C608031DF3
:101106008A287B160130F6007608C60708004608CE
:10111600013A0319FB1DA028DB140230F20000304F
:10112600F3006430F4000030F500873144270130C5
:10113600F60076082000C60708004608023A03199A
:10114600FA1DB7280330F2000030F3002708F50136
:10115600F5072608F401F407873144270130F60025
:1011660076082000C60708004608033A031D080053
:10117600DA1FBF28FB19D028DB1045100730F20014
:101186000030F300F430F4000130F50087314427D5
:101196002000C701C70AC60108005A1FD928DB105C
:1011A600C5140330F6007608C70008007A1E08004A
:1011B600DB1045140730F2000030F300F430F40081
:1011C6000130F500873144272000C701C70AC60150
:1011D6000800B808031DF128B801B80A6319681F8A
:1011E60000290930F2000030F3006430F4000030CA
:1011F600F500873144272000C701DB1008002000D6
:101206004708003A03193428013A03194D28033ACE
:1012160003196E28013A0319EC28112908000B134B
:10122600FF3021008F0020006E109531F5258931A1
:1012360020000F08F2007208D7006E149531F525CC
:1012460089312000EE109531F525893120000F08EF
:10125600F2007208DA00EE149531F5258931200086
:101266006E119531F525893120000F08F2007208BC
:10127600D8006E159531F52589312000EE1195318E
:10128600F525893120000F08F2007208D900EE1505
:101296009531F52589310B172000620C0139F200D2
:1012A600003010190130720603196229E210101D70
:1012B6005D29E2142000101D622962146329621060
:1012C600570CF200F20C720C0139F3006408013974
:1012D6007306031977296410D71D72296414200038
:1012E600D71977296314782963105A0C0139F2004B
:1012F600640C890C0139720603198A296411DA1CF7
:10130600852964152000DA188A2963158B2963114B
:101316005A0C890C0139F200640CF300F30C730CBF
:10132600013972060319A029E4115A1D9B29E415F7
:1013360020005A19A029E315A129E3115A0CF2003D
:10134600F20C720C0139F300640E013973060319AD
:10135600B5296412DA1DB02964162000DA19B529F8
:101366006316B62963125A0E0139F200640E890C0F
:10137600013972060319C829E4125A1EC329E41654
:1013860020005A1AC829E316C929E3125A0E890CF5
:101396000139F200640E890C890C013972060319B1
:1013A600DD296413DA1ED82964172000DA1ADD292C
:1013B6006317DE2963135A080139F200640C0139F8
:1013C60072060319F129E4105A1CEA29E4142000D4
:1013D6005A18EF29E3140800E3100800E310080088
:1013E600CA2A20003808033A031DFD290430F600F6
:1013F6007608B800E31AE91C0D2A0C30F20000301A
:10140600F3006430F4000030F500873144272000F3
:10141600D001D00A5B12CE010800E31AE91C202A8B
:101426000C30F2000030F3006430F4000030F500B8
:101436008731442789312000D001D81ACE14581E8E
:101446007A1D2A2A0230F6007608D000322A380899
:10145600033A031D322A0430F6007608B800CF019D
:101466000800E31AE91C442A0C30F2000030F300AD
:101476006430F4000030F5008731442789312000BC
:10148600D001D81ACE143808033A031D0800CF0835
:10149600031D532A7B160130F6007608CF07080095
:1014A6004F08013A0319FB1D692A5B160230F20048
:1014B6000030F3006430F4000030F5008731442733
:1014C6000130F60076082000CF0708004F08023AE0
:1014D6000319FA1D8E2A0330F2000030F3002708A4
:1014E600F501F5072608F401F40787314427893109
:1014F6000530F2000030F30020002508F501F5075D
:101506002408F401F407873144270130F6007608F1
:101516002000CF0708004F08033A031D08007A1B76
:10152600962AFB19A62A5B120730F2000030F30058
:10153600F430F4000130F500873144272000D00153
:10154600D00ACF010800581E08005B124E14033063
:10155600F6007608D00008003808033A031DB72ABB
:101566000430F6007608B800E31AE91CC62A0C30E7
:10157600F2000030F3006430F4000030F5008731EB
:1015860044272000D001D81ACE145B120800200090
:101596005008003A0319F429013A0319102A033AAC
:1015A6000319342A013A0319AF2AD92A0800B32BA2
:1015B60020003808023A031DE42A0330F6007608B4
:1015C600B800631A691CF42A0B30F2000030F300ED
:1015D6006430F4000030F500873144272000CD0147
:1015E600CD0ADB11CB010800631A691C072B0B30EF
:1015F600F2000030F3006430F4000030F50087316B
:1016060044278A312000CD01581DD81D112B7A1D83
:10161600112B0230F6007608CD00192B3808023A55
:10162600031D192B0330F6007608B800CC0108001C
:10163600631A691C2B2B0B30F2000030F300643068
:10164600F4000030F500873144278A312000CD01AF
:101656003808023A031D0800CC08031D382B7B16F8
:101666000130F6007608CC0708004C08013A031949
:10167600FB1D4E2BDB150230F2000030F300643008
:10168600F4000030F500873144270130F600760873
:101696002000CC0708004C08023A0319FA1D652BF6
:1016A6000330F2000030F3002708F501F50726089D
:1016B600F401F407873144270130F600760820004C
:1016C600CC0708004C08033A031D0800D81D6D2BF3
:1016D600FB197E2BDB114B100730F2000030F300B4
:1016E600F430F4000130F500873144272000CD01A5
:1016F600CD0ACC010800581D872BDB11CB14033013
:10170600F6007608CD0008007A1E0800DB110730C7
:10171600F2000030F300F430F4000130F5008731B8
:1017260044272000CD01CD0A4B14CC01080038080F
:10173600023A031DA22B0330F6007608B800631A9E
:10174600691CB12B0B30F2000030F3006430F4005A
:101756000030F500873144272000CD01DB11080059
:1017660020004D08003A0319DB2A013A0319F72A2B
:10177600033A03191B2B013A03199A2BC22B0800B3
:101786009C2C20003808043A031DCD2B0530F600AA
:101796007608B800631B691DDD2B0D30F2000030A2
:1017A600F3006430F4000030F50087314427200050
:1017B600D301D30ADB12D1010800631B691DF02B8C
:1017C6000D30F2000030F3006430F4000030F50014
:1017D600873144278B312000D301581FD81FFA2B9D
:1017E6007A1DFA2B0230F6007608D300022C380850
:1017F600043A031D022C0530F6007608B800D20123
:101806000800631B691D142C0D30F2000030F30034
:101816006430F4000030F500873144278B31200016
:10182600D3013808043A031D0800D208031D212CF1
:101836007B160130F6007608D20708005208013AF6
:101846000319FB1D372CDB160230F2000030F300C3
:101856006430F4000030F500873144270130F6008B
:1018660076082000D20708005208023A0319FA1D2A
:101876004E2C0330F2000030F3002708F501F5077F
:101886002608F401F407873144270130F60076086C
:101896002000D20708005208033A031D0800D81F8B
:1018A600562CFB19672CDB1251100730F200003062
:1018B600F300F430F4000130F500873144272000AE
:1018C600D301D30AD2010800581F702CDB12D114A1
:1018D6000330F6007608D30008007A1E0800DB12F3
:1018E6000730F2000030F300F430F4000130F50068
:1018F600873144272000D301D30A5114D2010800AE
:101906003808043A031D8B2C0530F6007608B8001B
:10191600631B691D9A2C0D30F2000030F300643011
:10192600F4000030F500873144272000D301DB1294
:10193600080020005308003A0319C42B013A031982
:10194600E02B033A0319042C013A0319832CAB2C20
:101956000800852D20003808053A031DB62C0630F0
:10196600F6007608B800E318E91DC62C0E30F20022
:101976000030F3006430F4000030F500873144276E
:101986002000D601D60A5B13D4010800E318E91D2E
:10199600D92C0E30F2000030F3006430F400003031
:1019A600F500873144278C312000D601D71F571FF9
:1019B600E32C7A1DE32C0230F6007608D600EB2CD9
:1019C6003808053A031DEB2C0630F6007608B800F9
:1019D600D5010800E318E91DFD2C0E30F200003099
:1019E600F3006430F4000030F500873144278C3171
:1019F6002000D6013808053A031D0800D508031D46
:101A06000A2D7B160130F6007608D5070800550822
:101A1600013A0319FB1D202D5B170230F20000303E
:101A2600F3006430F4000030F500873144270130BC
:101A3600F60076082000D50708005508023A031973
:101A4600FA1D372D0330F2000030F3002708F501A8
:101A5600F5072608F401F407873144270130F6001C
:101A660076082000D50708005508033A031D08002C
:101A7600571F3F2DFB19502D5B1354100730F200F2
:101A86000030F300F430F4000130F50087314427CC
:101A96002000D601D60AD5010800D71F592D5B13A1
:101AA600D4140330F6007608D60008007A1E080023
:101AB6005B1354140730F2000030F300F430F400E6
:101AC6000130F500873144272000D601D60AD5011A
:101AD60008003808053A031D742D0630F60076080E
:101AE600B800E318E91D832D0E30F2000030F30034
:101AF6006430F4000030F500873144272000D60119
:101B06005B13080020005608003A0319AD2C013A71
:101B16000319C92C033A0319ED2C013A03196C2D4C
:101B2600942D08002000681E08000130F600760893
:101B3600E0076008053A031D0800E001B72DB52D42
:101B4600B32DB808031DA92DFB19AC2D791DB52D94
:101B5600B32D7919B32DF91CB52DB32D791CB52DDF
:101B66005E14DC2D5E10DC2D4708003A0319A22D09
:101B7600013A0319A32D033A0319A42D013A0319B7
:101B8600B12DDC2DDC2DDA2DD82D3808013A031DB8
:101B9600CE2DFB19D12D791DDA2DD82D7919D82DF9
:101BA600F91CDA2DD82D791CDA2DDE14012EDE1063
:101BB600012E4A08003A0319C62D013A0319C72D0A
:101BC600033A0319C82D013A0319D62D012E012E09
:101BD600FF2DFD2D3808023A031DF32DFB19F62DB6
:101BE600791DFF2DFD2D7919FD2DF91CFF2DFD2DDC
:101BF600791CFF2D5E15262E5E11262E4D08003A05
:101C06000319EB2D013A0319EC2D033A0319ED2DB7
:101C1600013A0319FB2D262E262E242E222E3808B5
:101C2600033A031D182EFB191B2E791D242E222E76
:101C36007919222EF91C242E222E791C242EDE152B
:101C46004B2EDE114B2E5008003A0319102E013A86
:101C56000319112E033A0319122E013A0319202EE5
:101C66004B2E4B2E492E472E3808043A031D3D2E87
:101C7600FB19402E791D492E472E7919472EF91C3E
:101C8600492E472E791C492E5E16702E5E12702E36
:101C96005308003A0319352E013A0319362E033A32
:101CA6000319372E013A0319452E702E702E6E2E0B
:101CB6006C2E3808053A031D622EFB19652E791D18
:101CC6006E2E6C2E79196C2EF91C6E2E6C2E791CCC
:101CD6006E2EDE168E2EDE128E2E5608003A031952
:101CE6005A2E013A03195B2E033A03195C2E013A68
:101CF60003196A2E8E2E8E2E8C2E79198A2E8C2EF4
:101D0600FB198A2E791D8C2E8A2E791C8C2E5E1735
:101D1600982E5E13982E6B08840005300402031873
:101D2600982E88310435003E8200571A79189D2E68
:101D3600DE139E2EDE176A1C6A19BA2EEA1C451897
:101D4600BA2EC51C4818BA2EC81C4B18BA2ECB1C66
:101D56004E18BA2E511CD118BA2E541CD418BA2EAD
:101D6600CE1C4118BA2EDC1A571ABA2EDF01FA1EFB
:101D7600DD2FC408031DC72E6A1CB92FF030F600EC
:101D86007608DF055F14732F4408013A031DD92E28
:101D96006A1DB92FF030F6007608DF055F14DF14F0
:101DA6005F150F30F6007608DF05AD2F4408023ABE
:101DB600031DEC2EEA1CB92FF030F6007608DF057D
:101DC6005F14DF145F150F30F6007608DF055F1627
:101DD600AD2F4408033A031DF82E451CB92FF030E9
:101DE600F6007608DF055F14632F4408043A031DE6
:101DF600042FC51CB92FF030F6007608DF055F14F6
:101E0600752F4408053A031D0F2F481CB92FF030D3
:101E1600F6007608DF05252F4408063A031D1A2F1B
:101E2600C81CB92FF030F6007608DF05322F4408BB
:101E3600073A031D272F4B1CB92FF030F600760802
:101E4600DF055F14DF14632F4408083A031D342F9F
:101E5600CB1CB92FF030F6007608DF055F14DF14CF
:101E6600752F4408093A031D3F2F4E1CB92FF03039
:101E7600F6007608DF05742F44080A3A031D4B2F37
:101E8600511CB92FF030F6007608DF055F14622F7B
:101E960044080B3A031D572FD11CB92FF030F6001A
:101EA6007608DF055F14742F44080C3A031D692F6A
:101EB600541CB92FF030F6007608DF05DF145F15E5
:101EC6000F30F6007608DF055F16AE2F44080D3A90
:101ED600031D7A2FD41CB92FF030F6007608DF05E3
:101EE600DF145F150F30F6007608DF059A2F4408D9
:101EF6000E3A031D8A2FCE1CB92FF030F600760855
:101F0600DF055F150F30F6007608DF05AC2F4408B5
:101F16000F3A031D9C2F411CB92FF030F6007608AE
:101F2600DF05DF150F30F6007608DF055F16DF16D2
:101F3600AE2F4408103A031DBF2FDC1AB92FF0301C
:101F4600F6007608DF05DF150F30F6007608DF05A8
:101F56005F16DF165F170430F2000030F300F4302E
:101F6600F4000130F500873144278D310130F60049
:101F760076082000C407DD2F4408113A031DDD2F23
:101F8600571EDB2FF030F6007608DF055F14DF15ED
:101F96000F30F6007608DF05DF170430F200003058
:101FA600F300F430F4000130F500873144278D3119
:101FB6002000C4016E149531F5258D312000EE14F4
:101FC6009531F5258D3120006E159531F5258D312C
:101FD6002000EE159531F52521008F0120008D108A
:101FE6000D115E088F008D148D105F088F000D1582
:101FF6000D11FF3021008F0008008731452F8731F2
:10200600722F87314E2F8731572F8731602F8731B7
:10201600692F87317B2F8731842F87318D2F873129
:10202600972F8731A12F8731AB2F8731B52F873176
:10203600BF2F8731C92F803183288031A92882316B
:0A2046004E2A813111298231DF2A70
:102A0600640080010131890B042D0034F600043086
:102A1600F5007508F700FA309531322595316400D6
:102A26000130F702031D0E2D0130F60203190800CE
:102A36000A2D2000EB01B801C701CA01CD01D00162
:102A4600D301D601CF30F2007208EE000F30F2004B
:102A56007208F905A001A101A201A3010800F30073
:102A66000430F2007208F4007D30F2007208200093
:102A7600C2000000C20B3C2D64000130F402031DAD
:102A8600372D0130F30203190800332D95311C252B
:102A960095319631CA26953197313D279531963134
:102AA6007526953189311221953183317A239531F5
:102AB6008831332095318631022695318A31DA22E2
:102AC60095318931F32195318B31C32395318C3181
:102AD600AC24953188310B20953180318220953197
:102AE60096313226953195317D2595318D31952555
:102AF60095314F2D2000681E08002108F30020089C
:102B0600F200F336F20CF336F20C7208250091004F
:102B16002000201C912D25001316932D250013123D
:102B26002000A01C992D250093169B2D250093129D
:102B360020002308F3002208F200F336F20CF336E5
:102B4600F20C7208250098002000221CAD2D2500ED
:102B56001A16AF2D25001A122000A21CB52D25002D
:102B66009A16080025009A1208002000EE1FBD2DB7
:102B76008E16BE2D8E128E158E116E1FC42D8E16BC
:102B8600C52D8E128E158E11EE1ECB2D8E16CC2DCA
:102B96008E128E158E116E1ED22D8E16D32D8E127E
:102BA6008E158E11EE1DD92D8E16DA2D8E128E15DE
:102BB6008E116E1DE02D8E16E12D8E128E158E1144
:102BC600EE1CE72D8E16E82D8E128E158E116E1CBC
:102BD600EE2D8E16EF2D8E128E158E110E160E12EE
:102BE6008D1208002000EE1FFA2D8E16FB2D8E1278
:102BF6008E158E116E1F012E8E16022E8E128E15BA
:102C06008E11EE1E082E8E16092E8E128E158E1120
:102C16006E1E0F2E8E16102E8E128E158E11EE1D16
:102C2600162E8E16172E8E128E158E116E1D1D2EB9
:102C36008E161E2E8E128E158E11EE1C242E8E16BC
:102C4600252E8E128E158E116E1C2B2E8E162C2E68
:102C56008E128E158E110E160E128D120800200081
:102C6600681E08000130F2007208DD075D08053AAB
:102C7600031D0800DD010B136E149531F525963101
:102C86002000EE149531F525963120006E1595310C
:102C9600F52596312000EE159531F5259631210062
:102CA6008F0120005B088F006E169531F525963151
:102CB60020006E129531F525963120005C088F00B4
:102CC600EE169531F52596312000EE129531F52553
:102CD600963120006E139531F525FF3021008F00C7
:102CE6000B1708002000571E8B2EEB01C701CA01E7
:102CF600CD01D001D301D601F919791D842E5C17B7
:102D0600852E5C130F30F2007208F9057917B52E7F
:102D16006A1CEA18A62E6A1DC518A62EC81CCB1852
:102D2600A62E4E1CD118A62ED418A62E411C451828
:102D3600A42E481C4B18A42ECE1C5118A42E541C8D
:102D4600AF2EF91DA82E5C17A92E5C130F30F200CA
:102D56007208F905F917B52E0F30F2007208F90559
:102D6600F9165C134518B92EC51CBD2E791DBD2E4E
:102D76005C16BE2E5C124E18C22ECE1CC82E791DB5
:102D8600C62EDC170800DC130800DC13080022003E
:102D96008C01FF3021008C00FF3023008C002200C4
:102DA6008D0121008D0123008D0122008E018030CE
:102DB60021008E0023008E0120008F01FF302100AC
:102DC6008F0023008F0122009001FF302100900028
:102DD60003302300900020006E149531F5259631BE
:102DE6002000EE149531F525963120006E159531AB
:102DF600F52596312000EE159531F5259631FF30F3
:102E060020009B002500910198010C3093000C30A6
:102E16009A00073020009C00B23022009700113043
:102E2600200098001114210011140B138B17200099
:102E36000C1A1F2FFB12202FFB16B9016816E5018D
:102E46006508073A0319332F83317A239631013007
:102E5600F80078082000E5076508073A031D272FC4
:102E66000B170F30F8007808F905791605309531FB
:102E7600092508002000681E080068123708360475
:102E860003194B2F0130B6020030B73B7A104C2F96
:102E96007A142100210820040319572F0130A002BB
:102EA6000030A13BFA12582FFA16350834040319DC
:102EB600622F0130B4020030B53B7A12632F7A16C6
:102EC60020002D082C0403196E2F0130AC020030AF
:102ED600AD3BFA116F2FFA1521002B082A040319AE
:102EE6007A2F0130AA020030AB3B7A137B2F7A1778
:102EF60020002B082A040319862F0130AA0200306D
:102F0600AB3BFA10872FFA14210025082404031975
:102F1600922F0130A4020030A53BFA13932FFA1723
:102F26003308320403199D2F0130B2020030B33B3F
:102F36007A119E2F7A15390838040319A92F013002
:102F4600B8020030B93B2000E812AB2F2000E8168B
:102F56002100230822040319B72F0130A2020030F2
:102F6600A33B20006813B92F20006817210027080B
:102F760026040319C52F0130A6020030A73B200006
:102F8600E813C72F2000E817210029082804031991
:102F9600D32F0130A8020030A93B20006910D52F9D
:102FA6002000691421002D082C040319E12F01309B
:102FB600AC020030AD3B2000E910E32F2000E914FD
:102FC60021002F082E040319EF2F0130AE02003026
:102FD600AF3B20006911F12F20006915210031084F
:102FE60030040319FD2F0130B0020030B13B200040
:0A2FF600E91108002000E9150800A9
:020000040001F9
:04000E00E2EFFFDF3F
:00000001FF
