:0A0000008316FF2390008312F82BF3
:10057E0007308312990083169F010830850083127D
:10058E008501873083168100831281018512A2179F
:10059E000108031DCF2AEC308100A101051485143A
:1005AE000515D92ADA2A00008312851D211405109B
:1005BE0085140515E22AE32A00008312851DA11475
:1005CE00051485100515EB2AEC2A00008312851DF3
:1005DE002115051085100515F42AF52A0000831241
:1005EE00851DA115051485140511FD2AFE2A00008E
:1005FE008312851D2116051085140511062B072B58
:10060E0000008312851DA1160514851005110F2BF0
:10061E00102B00008312851D211705108510051162
:10062E00182B192B00008312851DA117051085109C
:10063E0005110512A201A001851E3A2B211E2B2B9E
:10064E000130A5002508A007A11E312B0230A50000
:10065E002508A007211F372B0430A5002508A00769
:10066E00A11F522B4E2B211C402B0130A50025081B
:10067E00A007A11C462B0230A5002508A007211DAE
:10068E004C2B0430A5002508A007A11D522B0830C5
:10069E00A5002508A007A008031D572B3F30B02B3F
:1006AE002008013A031D5D2B0630B02B2008023ABC
:1006BE00031D632B5B30B02B2008033A031D692BFF
:1006CE004F30B02B2008043A031D6F2B6630B02B31
:1006DE002008053A031D752B6D30B02B2008063A05
:1006EE00031D7B2B7D30B02B2008073A031D812B79
:1006FE000730B02B2008083A031D872B7F30B02B14
:10070E002008093A031D8D2B6F30B02B20080A3AB2
:10071E00031D932B7730B02B20080B3A031D992B1A
:10072E007C30B02B20080C3A031D9F2B3930B02B98
:10073E0020080D3A031DA52B5E30B02B20080E3A73
:10074E00031DAB2B7930B02B20080F3A031DB32BB2
:10075E007130A5002508A200851EB82B8512A217A0
:10076E00B92BA213A21FBD2B8514BE2B8510051409
:10077E000510221FC42B8514C52B851005140510DA
:10078E00A21ECB2B8514CC2B851005140510221E12
:10079E00D22B8514D32B851005140510A21DD92B31
:1007AE008514DA2B851005140510221DE02B8514F7
:1007BE00E12B851005140510A21CE72B8514E82BE0
:1007CE00851005140510221CEE2B8514EF2B8510B9
:1007DE0005140510051605128510851ACF2A8516E3
:1007EE00CF2AA001A101A201A301A4018301BF2A66
:02400E00C431BB
:00000001FF
